:10000000C3C10000F2C10000F0C10000EEC1000059
:10001000ECC10000EAC10000E8C10000E6C1000038
:10002000E4C10000E2C10000E0C10000DEC1000048
:10003000DCC10000DAC10000D8C10000D6C1000058
:10004000D4C10000D2C10000D0C10000CEC1000068
:10005000CCC10000CAC10000C8C100000C941D67DB
:10006000C4C100000C94E96A0C941F6BBEC100006F
:10007000BCC10000BAC10000B8C10000B6C1000098
:10008000B4C10000B2C10000B0C10000AEC10000A8
:100090000C94946B0C94CA6BA8C100000C94E75E9E
:1000A000A4C10000A2C10000A0C100009EC10000C8
:1000B0009CC100009AC1000098C1000096C10000D8
:1000C00094C1000092C1000090C100008EC10000E8
:1000D0008CC100008AC1000088C1000086C10000F8
:1000E00084C1000082028902900297029E02A5024A
:1000F000AC02B302BA02C102C802CF027C687F68B8
:100100006E6872687868B668836887688D68916879
:1001100095689B689F68A368B668A968AD68B16870
:10012000005EBCE2613FDD83C29C7E20A3FD1F41D7
:100130009DC3217FFCA2401E5F01E3BD3E6082DCC7
:10014000237D9FC1421CFEA0E1BF5D0380DE3C62B7
:10015000BEE0025CDF81633D7C22C09E1D43A1FFA7
:100160004618FAA427799BC584DA3866E5BB590797
:10017000DB856739BAE406581947A5FB7826C49A87
:10018000653BD987045AB8E6A7F91B45C6987A2477
:10019000F8A6441A99C7257B3A6486D85B05E7B967
:1001A0008CD2306EEDB3510F4E10F2AC2F7193CD57
:1001B000114FADF3702ECC92D38D6F31B2EC0E5047
:1001C000AFF1134DCE90722C6D33D18F0C52B0EE37
:1001D000326C8ED0530DEFB1F0AE4C1291CF2D7327
:1001E000CA947628ABF517490856B4EA6937D58B17
:1001F0005709EBB536688AD495CB2977F4AA481607
:10020000E9B7550B88D6346A2B7597C94A14F6A8F6
:10021000742AC896154BA9F7B6E80A54D7896B35E6
:1002200000000A0B02090C0D0E0807030401000070
:1002300000000000000000000000000000000000BE
:10024000000000000000000000000000121110007B
:10025000000000000000000000000000000000009E
:1002600000000000000001021020200808102040BB
:10027000102040800201020108040201010204086A
:1002800010204080804020100804020180040201F8
:100290008040201008040201080402010102040841
:1002A000102040800102040810204080050505054B
:1002B000070508080808020202020A0A08080404DE
:1002C000040401010101010101010303030303030C
:1002D0000303040707070C0C0C0C0C0C0C0C02029B
:1002E000020206060606060606060B0B0B0B0B0B98
:1002F0000B0B000020002300260029002C002F00FB
:100300003200000100000301060109010000220083
:10031000250028002B002E003100340002010000CF
:10032000050108010B0100002100240027002A001C
:100330002D003000330001010000040107010A0113
:100340004E414E494E495459494E46CDCCCC3D0ABA
:10035000D7233C17B7D13877CC2B329595E6241F9D
:10036000B14F0A000020410000C84200401C462056
:10037000BCBE4CCA1B0E5AAEC59D74006626FE5DFF
:100380005064516BFC6B832711241FBECFEFD1E269
:10039000DEBFCDBF00E00CBF1AE0A0E0B2E0ECE2AF
:1003A000F0EF00E00BBF02C007900D92A83EB1072E
:1003B000D9F72FE0A8EEBAE001C01D92AA3CB2071F
:1003C000E1F713E0C6E8D3E000E006C02297010998
:1003D000FE010BBF0E94B073CC37D10780E0080745
:1003E000A9F70E9401710C9405780ACECF92DF9292
:1003F000EF92FF920F931F93E82FF92F05C0015042
:1004000011092109310961F1908196239417B9F3FB
:1004100005C0015011092109310911F1908196237C
:100420009413F7CFC12CD12CE12CF12C0AC08FEF03
:10043000C81AD80AE80AF80A0C151D052E053F054A
:1004400079F080818623841791F36C2D7D2D8E2D7C
:100450009F2D1F910F91FF90EF90DF90CF90089507
:1004600060E070E080E090E01F910F91FF90EF90CE
:10047000DF90CF9008950C946C760C947476FC0108
:100480001382128227E43AE03183208375836483E8
:10049000518740870C94615BBC0180EC9DE00E9419
:1004A0008A5DE091C00DF091C10D0190F081E02DC9
:1004B00061E180EC9DE0199580EC9DE00C94FC5D81
:1004C0000F931F93CF93DF93CDB7DEB7C856D109F3
:1004D0000FB6F894DEBF0FBECDBF44E050E0BE01C2
:1004E0006A5A7F4FCE01895B9F4FC9DF0E94065B2E
:1004F00001978C30910508F059C08E589F4FFC0130
:100500000C948B7363E674E0CE01895B9F4F0E946D
:10051000A66C67E674E0CE01895B9F4F0E94A66CD3
:100520006BE674E0CE01895B9F4F0E94A66C6FE67C
:1005300074E0CE01895B9F4F0E94A66C63E774E074
:10054000CE01895B9F4F0E94A66C67E774E0CE01E5
:10055000895B9F4F0E94A66C6BE774E0CE01895BBC
:100560009F4F0E94A66C6FE774E0CE01895B9F4F9E
:100570000E94A66C63E874E0CE01895B9F4F0E94E5
:10058000A66C67E874E0CE01895B9F4F0E94A66C61
:100590006BE874E0CE01895B9F4F0E94A66C6FE808
:1005A00074E0CE01895B9F4F0E94A66C43E050E04F
:1005B000BE016A597F4FCE01CD9661DF0E94005B7C
:1005C0008C018A30910534F466EF77E0CE01CD9648
:1005D0000E948B6C4AE050E0B801CE01CD960E949B
:1005E000516D45E050E0BE016F5A7F4FCE01C3967A
:1005F00046DF0E940C5B4AE050E0BC01CE01C3968E
:100600000E94516D43E050E0BE016D597F4FCE0115
:10061000899635DF0E94E75A8C018D30910514F0E0
:100620000C5011090A30110534F466EF77E0CE0161
:1006300089960E948B6C4AE050E0B801CE01899601
:100640000E94516D43E050E0BE01605A7F4FCE01E1
:100650004F9615DF0E94F45A8C018A30910534F4CC
:1006600066EF77E0CE014F960E948B6C4AE050E037
:10067000B801CE014F960E94516D0091860D1091E8
:10068000870D0E94F45A0817190721F10E94E75AB2
:10069000682F80E090E0F1DE0E94F45A682F81E03C
:1006A00090E0EBDE0E94FA5A682F82E090E0E5DEEF
:1006B0000E94005B682F83E090E0DFDE0E94065B13
:1006C000682F84E090E0D9DE0E940C5B682F85E003
:1006D00090E0D3DE0E94F45A9093870D8093860DAC
:1006E00043E050E0BE01635A7F4FCE014596C7DE1E
:1006F0000E94FA5A8C018A30910534F466EF77E053
:10070000CE0145960E948B6C4AE050E0B801CE01C4
:1007100045960E94516D43E050E0BE01665A7F4FFE
:10072000CE010B96ACDE0E94ED5A813019F468EDD3
:1007300076E006C00E94ED5A811106C064E477E0BD
:10074000CE010B960E94A66C49E150E065E474E08E
:10075000CE01019694DEBE016A5A7F4FCE0101960A
:100760000E948B6C6BE677E0CE0101960E948B6C49
:10077000BE016A597F4FCE0101960E948B6C63E9DE
:1007800074E0CE0101960E948B6CBE016F5A7F4FC0
:10079000CE0101960E948B6C6BE677E0CE0101964C
:1007A0000E948B6CBE016D597F4FCE0101960E9455
:1007B0008B6C69EA74E0CE0101960E948B6CBE01DD
:1007C000605A7F4FCE0101960E948B6C69EA74E0FB
:1007D000CE0101960E948B6CBE01635A7F4FCE0101
:1007E00001960E948B6C6BE677E0CE0101960E9429
:1007F0008B6CBE01665A7F4FCE0101960E94A66C9B
:10080000C859DF4F0FB6F894DEBF0FBECDBFDF91E2
:10081000CF911F910F910895FF920F931F93CF9344
:10082000DF93EC0128DEF82ECE01019624DE082F9E
:10083000CE01029620DE182FCE0103961CDE282F53
:100840006F2D702F812F922FDF91CF911F910F91DC
:10085000FF900895EF92FF921F93CF93DF931F9223
:100860001F92CDB7DEB77C01162F642F59837A8390
:1008700004DE5981652FC7010196FFDD612FC70195
:100880000296FBDD7A81672FC70103960F900F90C8
:10089000DF91CF911F91FF90EF90EFCD2F923F927C
:1008A0004F925F926F927F928F929F92AF92BF9280
:1008B000CF92DF92EF92FF920F931F93CF93DF932C
:1008C00000D01F921F92CDB7DEB75A011901270140
:1008D0009093C10C8093C00C6093A00C7093A10CFA
:1008E00020919E038D3091051CF42093900C02C042
:1008F0001092900C00EC1CE020E93CE03D832C833E
:1009000020EAC22E2CE0D22E3C014B0121E08C814A
:100910009D8180599C40841595050CF093C01A83E5
:100920000983F80171826082F60191828082F6016A
:1009300040815181F801808191814C33510554F0FF
:100940004C535109F601518340830196F80191837C
:100950008083EDCF6CE070E00E943A737B01F80178
:10096000808191818D3091052CF00C97F801918355
:100970008083F5CF87E29FE02B830E94936C66E92A
:1009800074E087E29FE00E948B6C60919E0370E0B0
:100990004AE050E087E29FE00E944A6D87E29FE0D4
:1009A0000E94936C0E5F1F4FE981FA816081718113
:1009B0004AE050E087E29FE00E944A6D6BEA74E0F3
:1009C00087E29FE00E948B6C4AE050E0B70187E22B
:1009D0009FE00E944A6D87E29FE00E94936C2B810A
:1009E000F2E0EF16F104C1F03CF4E114F104A1F0DF
:1009F000EA94EF2851F019C093E0E916F10429F0C8
:100A0000E4E0EE16F10441F010C080919E03EC8109
:100A1000FD81882339F008C080919E03EC81FD811F
:100A2000882311F0208301C010828C819D81019662
:100A30009D838C8392E0C90ED11C6A0C7B1C820CB6
:100A4000931C65CF0F900F900F900F900F90DF9138
:100A5000CF911F910F91FF90EF90DF90CF90BF90BB
:100A6000AF909F908F907F906F905F904F903F904E
:100A70002F9008956EEA74E087E29FE00E948B6CED
:100A8000809128020E942569892B29F44AE050E0D0
:100A900061E070E00AC0809128020E9425690197F8
:100AA00041F44AE050E060E070E087E29FE00E949D
:100AB0004A6D6DE375E087E29FE00E948B6C809148
:100AC00026020E942569892B29F44AE050E061E062
:100AD00070E00AC0809126020E942569019741F4C6
:100AE0004AE050E060E070E087E29FE00E944A6DDB
:100AF0006DE375E087E29FE00E948B6C8091240299
:100B00000E942569892B29F44AE050E061E070E0F9
:100B10000AC0809124020E942569019741F44AE0AD
:100B200050E060E070E087E29FE00E944A6D6DE374
:100B300075E087E29FE00E948B6C809122020E9408
:100B40002569892B29F44AE050E061E070E00AC091
:100B5000809122020E942569019741F44AE050E009
:100B600060E070E087E29FE00E944A6D6DE375E00F
:100B700087E29FE00E948B6C809120020E94256991
:100B8000892B29F44AE050E061E070E00AC08091CE
:100B900020020E942569019741F44AE050E060E09C
:100BA00070E087E29FE00E944A6D6DE375E087E2A6
:100BB0009FE00E948B6C80911E020E942569892B08
:100BC00029F44AE050E061E070E00AC080911E0222
:100BD0000E942569019741F44AE050E060E070E02E
:100BE00087E29FE00E944A6D6DE375E087E29FE037
:100BF0000E948B6C80911C020E942569892B29F42C
:100C00004AE050E061E070E00AC080911C020E945E
:100C10002569019741F44AE050E060E070E087E226
:100C20009FE00E944A6D6DE375E087E29FE00E94BD
:100C30008B6C80911A020E942569892B29F44AE065
:100C400050E061E070E00AC080911A020E942569BC
:100C5000019741F44AE050E060E070E087E29FE0F5
:100C60000E94516D66EB74E087E29FE00E948B6CFE
:100C700060911802709119024AE050E087E29FE00B
:100C80000E944A6D6DE375E087E29FE00E948B6CE5
:100C900060911602709117024AE050E087E29FE0EF
:100CA0000E944A6D6DE375E087E29FE00E948B6CC5
:100CB00060911402709115024AE050E087E29FE0D3
:100CC0000E944A6D6DE375E087E29FE00E948B6CA5
:100CD00060911202709113024AE050E087E29FE0B7
:100CE0000E944A6D6DE375E087E29FE00E948B6C85
:100CF00060911002709111024AE050E087E29FE09B
:100D00000E944A6D6DE375E087E29FE00E948B6C64
:100D100060910E0270910F024AE050E087E29FE07E
:100D20000E944A6D6DE375E087E29FE00E948B6C44
:100D300060910C0270910D024AE050E087E29FE062
:100D40000E944A6D6DE375E087E29FE00E948B6C24
:100D500060910A0270910B024AE050E087E29FE046
:100D60000C94516DCF93DF93CDB7DEB760970FB67C
:100D7000F894DEBF0FBECDBFFC0180912802909198
:100D800029029A83898380912602909127029C836D
:100D90008B8380912402909125029E838D83809184
:100DA00022029091230298878F8380912002909154
:100DB00021029A87898780911E0290911F029C8749
:100DC0008B8780911C0290911D029E878D87809158
:100DD0001A0290911B028F87988BE830F105A4F4DA
:100DE0006130710539F43197EE0FFF1FEC0FFD1FD5
:100DF00060E008C0672BA1F43197EE0FFF1FEC0FE6
:100E0000FD1F61E081810AC0389751F4613071059E
:100E100011F460E003C0672B19F461E00E94F068F0
:100E200060960FB6F894DEBF0FBECDBFDF91CF91B5
:100E300021CEAF92BF92CF92DF92EF92FF920F93AB
:100E40001F93CF93DF9300D01F92CDB7DEB761E041
:100E5000809128020E94B76861E0809126020E947A
:100E6000B76861E0809124020E94B76861E08091D8
:100E700022020E94B76861E0809120020E94B76858
:100E800061E080911E020E94B76861E080911C02BF
:100E90000E94B76861E080911A020E94B76861E021
:100EA000809108020E94B76861E0809106020E946A
:100EB000B76861E0809108020E94F06861E080916B
:100EC00006020E94F06885E09BE00E94DA62CE0193
:100ED00001960E94406589819A81AB81BC81809393
:100EE0009E0B90939F0BA093A00BB093A10B64EC6F
:100EF00074E08AE89EE00E94A66C43E353E363EB50
:100F000070E48EE99BE00E94646590939D0B809352
:100F10009C0B009751F0BC018EE99BE00E94256676
:100F2000BC018AE89EE00E94A66C60EE74E08AE84C
:100F30009EE00E94A66C60E08EE99BE00E941F6626
:100F400090939D0B80939C0B009751F0BC018EE910
:100F50009BE00E942566BC018AE89EE00E94A66C88
:100F60001092F70A1092F60A1092F50A1092F40AFB
:100F70001092F30A1092F20A1092F10A1092F00AFB
:100F80001092EF0A1092EE0A1092ED0A1092EC0AFB
:100F90001092EB0A1092EA0A1092E90A1092E80AFB
:100FA00060E070E081E090E0DDDE60E070E082E033
:100FB00090E0D8DE60E070E083E090E0D3DE60E0B7
:100FC00070E084E090E0CEDE60E070E085E090E0EC
:100FD000C9DE60E070E086E090E0C4DE60E070E0D2
:100FE00087E090E0BFDE60E070E088E090E0BADE8D
:100FF00086E190E040DA90E0909319028093180225
:1010000087E190E038DA90E090931702809316021F
:1010100088E190E030DA90E090931502809314021A
:1010200089E190E028DA90E0909313028093120215
:101030008AE190E020DA90E0909311028093100210
:101040008BE190E018DA90E090930F0280930E020B
:101050008CE190E010DA90E090930D0280930C0206
:101060008DE190E008DA90E090930B0280930A0201
:1010700086E290E000DA90E090939D0380939C03D9
:1010800087E290E0F8D990E090939B0380939A03D5
:1010900088E290E0F0D990E09093980380939703D2
:1010A00089E290E0E8D990E09093960380939503CD
:1010B0008AE290E0E0D990E09093940380939303C8
:1010C0008BE290E0D8D990E09093920380939103C3
:1010D00060E7E62E6CE0F62E70E5C72E7CE0D72E9A
:1010E000E0E4AE2EECE0BE2E0CE210E0C801C3D965
:1010F00090E0F701819391937F01C8014096BBD99D
:1011000090E0F601819391936F01C8018096B3D965
:1011100091E0811101C090E0F50191935F010F5FB3
:101120001F4F0C33110511F78DE590E0A4D990E025
:101130009093A4038093A3038EE590E09CD990E064
:101140009093A2038093A1038FE590E094D990E05F
:101150009093ED0C8093EC0C80E690E08CD990E0BD
:101160009093A00380939F0381E790E055DB609309
:10117000DF027093E0028093E1029093E20285E740
:1011800090E04ADB6093DB027093DC028093DD0227
:101190009093DE0289E790E03FDB6093D702709383
:1011A000D8028093D9029093DA028DE790E034DB85
:1011B0006093D3027093D4028093D5029093D602A9
:1011C00081E890E029DB6093CF027093D002809396
:1011D000D1029093D20285E890E01EDB6093CB02AF
:1011E0007093CC028093CD029093CE0289E890E078
:1011F00013DB6093C7027093C8028093C902909377
:10120000CA028DE890E008DB6093C3027093C402C9
:101210008093C5029093C60281E990E0FDDA609365
:10122000BF027093C0028093C1029093C20285E90D
:1012300090E0F2DA6093BB027093BC028093BD022F
:101240009093BE0289E990E0E7DA6093AF02709371
:10125000B0028093B1029093B2028DE990E0DCDAA3
:101260006093AB027093AC028093AD029093AE0298
:1012700081EA90E0D1DA6093A7027093A80280938C
:10128000A9029093AA0285EA90E0C6DA6093A302CD
:101290007093A4028093A5029093A60289EA90E03D
:1012A000BBDA60939F027093A0028093A102909397
:1012B000A2028DEA90E0B0DA60939B0270939C02E8
:1012C00080939D0290939E0281EB90E0A5DA60935B
:1012D0009702709398028093990290939A0285EBFB
:1012E00090E09ADA6093930270939402809395024F
:1012F0009093960289EB90E08FDA60938F0270935F
:10130000900280939102909392028DEB90E084DAA8
:1013100060938B0270938C0280938D0290938E0267
:1013200081EC90E0A8D8813019F480938A0202C041
:1013300010928A0282EC90E06FDA609386027093DA
:101340008702809388029093890286EC90E064DAA9
:10135000609382027093830280938402909385024B
:101360008AEC90E059DA60937E0270937F0280935A
:101370008002909381028EEC90E04EDA60937A02C4
:1013800070937B0280937C0290937D0282ED90E0CB
:1013900072D8813019F48093790202C010927902D8
:1013A00083ED90E039DA6093750270937602809352
:1013B00077029093780287ED90E02EDA60937102C5
:1013C0007093720280937302909374028BED90E09D
:1013D00023DA60936D0270936E0280936F02909394
:1013E00070028FED90E018DA6093690270936A02E0
:1013F00080936B0290936C0283EE90E03CD8813036
:1014000019F48093680202C01092680284EE90E0A2
:1014100003DA60936402709365028093660290938E
:10142000670288EE90E0F8D96093600270936102E1
:1014300080936202909363028CEE90E0EDD960930A
:101440008B0370938C0380938D0390938E0380EFB6
:1014500090E0E2D9609387037093880380938903B7
:1014600090938A0384EF90E0D7D9609383037093BD
:101470008403809385039093860388EF90E0CCD912
:1014800060937F0370938003809381039093820322
:101490008CEF90E00E943B02813019F480937E0330
:1014A00002C010927E038DEF90E0B6D960937A036C
:1014B00070937B0380937C0390937D0381E091E0A4
:1014C000ABD96093760370937703809378039093FE
:1014D000790385E091E0A0D9609372037093730360
:1014E000809374039093750389E091E095D960939C
:1014F0006E0370936F0380937003909371038DE07C
:1015000091E00E943B02813019F480936D0302C088
:1015100010926D038EE091E07FD960936903709320
:101520006A0380936B0390936C0382E191E074D91A
:1015300060936503709366038093670390936803D9
:1015400086E191E069D960936103709362038093AF
:101550006303909364038AE191E05ED960935D0335
:1015600070935E0380935F03909360038EE191E03C
:101570000E943B02813019F480935C0302C01092F8
:101580005C038FE191E048D960935803709359034D
:1015900080935A0390935B0383E291E03DD960937B
:1015A000540370935503809356039093570387E237
:1015B00091E032D9609350037093510380935203AA
:1015C000909353038BE291E027D960934C0370937F
:1015D0004D0380934E0390934F038FE291E00E945E
:1015E0003B02813019F480934B0302C010924B03ED
:1015F00080E391E011D9609347037093480380938F
:10160000490390934A0384E391E006D9609343032E
:1016100070934403809345039093460388E391E0DD
:10162000FBD86093B7027093B8028093B90290938D
:10163000BA028CE391E0F0D86093B3027093B402E5
:101640008093B5029093B60284EF91E0E5D8609361
:101650003F0370934003809341039093420388EFCC
:1016600091E0DAD860933B0370933C0380933D0391
:1016700090933E038CEF91E0CFD860933703709343
:1016800038038093390390933A0380E092E0C4D802
:101690006093330370933403809335039093360340
:1016A00084E092E0B9D860932F0370933003809365
:1016B00031039093320388E092E0AED860932B031D
:1016C00070932C0380932D0390932E038CE092E073
:1016D000A3D86093270370932803809329039093E2
:1016E0002A0380E192E098D8609323037093240347
:1016F000809325039093260384E192E08DD8609334
:101700001F0370932003809321039093220388E1A9
:1017100092E082D860931B0370931C0380931D0397
:1017200090931E038CE192E077D860931703709337
:1017300018038093190390931A0380E292E06CD807
:10174000609313037093140380931503909316030F
:1017500084E292E061D860930F037093100380934A
:1017600011039093120388E292E056D860930B0322
:1017700070930C0380930D0390930E038CE292E020
:101780004BD86093070370930803809309039093E9
:101790000A0380E392E040D860930303709304034C
:1017A000809305039093060384E392E035D8609319
:1017B000FF0270930003809301039093020388E378
:1017C00092E02AD86093FB027093FC028093FD02A2
:1017D0009093FE028CE392E01FD86093F70270931F
:1017E000F8028093F9029093FA0280E492E014D810
:1017F0006093F3027093F4028093F5029093F602E3
:1018000084E492E009D86093EF027093F002809331
:10181000F1029093F20288E492E00E940C0460933B
:10182000EB027093EC028093ED029093EE028CE455
:1018300092E00E940C046093E7027093E8028093A8
:10184000E9029093EA0280E592E00E940C04609322
:10185000E3027093E4028093E5029093E60250EE77
:10186000E52E57E0F52E01E010E021E030E040E009
:1018700050E060E070E080E090E00E940E5B89E163
:1018800095E60E94305B26E040E052EC61E070E0BB
:101890008AE89EE00E94876A26E040E052EC61E020
:1018A00070E087E29FE00E94876A0F900F900F9090
:1018B0000F90DF91CF911F910F91FF90EF90DF90EC
:1018C000CF90BF90AF900895CF92DF92EF92FF92AA
:1018D0008091160290911702019709F086C08091BD
:1018E0006D03882309F481C0C090E20BD090E30B14
:1018F000E090E40BF090E50B2091720330917303BC
:101900004091740350917503C701B6010E94C372E0
:1019100087FF0FC020916E0330916F0340917003D9
:1019200050917103C701B6010E94747118160CF42E
:101930005CC020E030E040E85FE360916E037091AE
:101940006F0380917003909171030E940F719B014E
:10195000AC01C701B6010E947471181684F420E02E
:1019600030E044E353E46091DE0B7091DF0B809133
:10197000E00B9091E10B0E94C37287FD05C060E00F
:1019800070E082E090E0EED920E030E040E85FE3F4
:101990006091720370917303809174039091750349
:1019A0000E9410719B01AC016091E20B7091E30BFE
:1019B0008091E40B9091E50B0E94C37287FF10C0E9
:1019C00020E030E044E353E46091DE0B7091DF0BE4
:1019D0008091E00B9091E10B0E94747187FF05C02C
:1019E00061E070E082E090E0BDD9809114029091B6
:1019F0001502019709F082C080915C03882309F4E5
:101A00007DC0C090DE0BD090DF0BE090E00BF0903B
:101A1000E10B209161033091620340916303509187
:101A20006403C701B6010E94C37287FF0FC02091F3
:101A30005D0330915E0340915F0350916003C701E5
:101A4000B6010E94747118160CF458C020E030E002
:101A500040E85FE360915D0370915E0380915F03F6
:101A6000909160030E940F719B01AC01C701B60108
:101A70000E9474711816ACF020E030E044E353E4A7
:101A80006091E60B7091E70B8091E80B9091E90B68
:101A90000E94C37287FD05C060E070E083E090E0C3
:101AA00061D9C090DE0BD090DF0BE090E00BF0909E
:101AB000E10B20E030E040E85FE36091610370916A
:101AC000620380916303909164030E9410719B01F3
:101AD000AC01C701B6010E94C37287FD0FC020E0B0
:101AE00030E044E353E4C701B6010E947471181654
:101AF0002CF061E070E083E090E034D98091120234
:101B000090911302019709F066C080914B038823DE
:101B100009F461C0C090DA0BD090DB0BE090DC0BD5
:101B2000F090DD0B2091500330915103409152030E
:101B300050915303C701B6010E94C37287FF0FC0C3
:101B400020914C0330914D0340914E0350914F032F
:101B5000C701B6010E94747118160CF43CC020E055
:101B600030E040E85FE360914C0370914D03809159
:101B70004E0390914F030E940F719B01AC01C7016E
:101B8000B6010E94747118162CF060E070E084E0D9
:101B900090E0E8D820E030E040E85FE36091500357
:101BA0007091510380915203909153030E941071E0
:101BB0009B01AC016091DA0B7091DB0B8091DC0B27
:101BC0009091DD0B0E94C37287FD05C061E070E05B
:101BD00084E090E0C7D880910E0290910F020197A7
:101BE00009F061C0C090FA0BD090FB0BE090FC0BA9
:101BF000F090FD0B20919F023091A0024091A10234
:101C00005091A202C701B6010E94C37287FF0FC0A4
:101C100020919B0230919C0240919D0250919E0226
:101C2000C701B6010E94747118160CF43CC020E084
:101C300030E040E85FE360919B0270919C028091EC
:101C40009D0290919E020E940F719B01AC01C70101
:101C5000B6010E94747118162CF060E070E086E006
:101C600090E080D820E030E040E85FE360919F02A0
:101C70007091A0028091A1029091A2020E94107125
:101C80009B01AC016091FA0B7091FB0B8091FC0BF6
:101C90009091FD0B0E94C37287FD05C061E070E06A
:101CA00086E090E05FD880910C0290910D02019740
:101CB00009F066C0C090FA0BD090FB0BE090FC0BD3
:101CC000F090FD0B2091A7023091A8024091A9024B
:101CD0005091AA02C701B6010E94C37287FF0FC0CC
:101CE0002091A3023091A4024091A5025091A60236
:101CF000C701B6010E94747118160CF441C020E0AF
:101D000030E040E85FE36091A3027091A40280910B
:101D1000A5029091A6020E940F719B01AC01C70120
:101D2000B6010E94747118162CF060E070E087E034
:101D300090E018D820E030E040E85FE36091A7022F
:101D40007091A8028091A9029091AA020E9410713C
:101D50009B01AC016091FA0B7091FB0B8091FC0B25
:101D60009091FD0B0E94C37287FD0AC061E070E094
:101D700087E090E0FF90EF90DF90CF900C94B20658
:101D8000FF90EF90DF90CF9008954F925F926F9207
:101D90007F928F929F92AF92BF92CF92DF92EF92FB
:101DA000FF920F931F93CF93DF9300D01F92CDB775
:101DB000DEB783E090E09093930D8093920D8EE0D8
:101DC00090E09093910D8093900D8FED97E090931C
:101DD0008F0D80938E0D89E090E090938D0D809310
:101DE0008C0D8AE190E090938B0D80938A0D85E3B2
:101DF00090E09093890D8093880D4CE050E05093D3
:101E0000F50C4093F40C1092F30C1092F20C27E1B5
:101E100030E03093F10C2093F00C8BE390E0909342
:101E2000EF0C8093EE0C5093A4034093A303109205
:101E3000ED0C1092EC0C3093A2032093A10390932D
:101E4000A00380939F03ABE0B0E0B093EB0CA093B2
:101E5000EA0CEDE2F0E0F093E90CE093E80C11E01D
:101E600010939E0362E070E07093E70C6093E60CC1
:101E70004EE150E05093E50C4093E40C2FE030E04D
:101E80003093E30C2093E20C81E090E09093E10C1E
:101E90008093E00CB0939D03A0939C03F0939B036D
:101EA000E0939A03109399037093980360939703B8
:101EB0005093960340939503309394032093930398
:101EC000909392038093910310923F0C10923E0CDA
:101ED00010923D0C10923C0C10923B0C10923A0C5C
:101EE0001092390C1092380C1092370C1092360C5C
:101EF0001092350C1092340C1092330C1092320C5C
:101F00001092310C1092300C10922F0C10922E0C5B
:101F100010922D0C10922C0C10922B0C10922A0C5B
:101F20001092290C1092280C1092270C1092260C5B
:101F30001092250C1092240C1092200C1092210C5F
:101F40001092220C1092230C10921C0C10921D0C5B
:101F500010921E0C10921F0C1092180C1092190C5B
:101F600010921A0C10921B0C1092140C1092150C5B
:101F70001092160C1092170C10920A0C10920B0C67
:101F800010920C0C10920D0C1092060C1092070C73
:101F90001092080C1092090C1092020C1092030C73
:101FA0001092040C1092050C1092FA0B1092FB0B7D
:101FB0001092FC0B1092FD0B1092F60B1092F70B87
:101FC0001092F80B1092F90B1092F20B1092F30B87
:101FD0001092F40B1092F50B1092EE0B1092EF0B87
:101FE0001092F00B1092F10B1092EA0B1092EB0B87
:101FF0001092EC0B1092ED0B1092FE0B1092FF0B57
:102000001092000C1092010C1092E60B1092E70B4C
:102010001092E80B1092E90B1092E20B1092E30B76
:102020001092E40B1092E50B1092DE0B1092DF0B76
:102030001092E00B1092E10B1092DA0B1092DB0B76
:102040001092DC0B1092DD0B1092D60B1092D70B76
:102050001092D80B1092D90B1092D20B1092D30B76
:102060001092D40B1092D50B1092CE0B1092CF0B76
:102070001092D00B1092D10B1092CA0B1092CB0B76
:102080001092CC0B1092CD0B1092C60B1092C70B76
:102090001092C80B1092C90B67E075E086E99BE0CF
:1020A0000E94E06E412C512C28E4622E22E4722E14
:1020B00040928B0350928C0360928D0370928E033A
:1020C000C12CD12C38E4E32E33E4F32EC0928703E5
:1020D000D0928803E0928903F0928A03C09283032E
:1020E000D0928403E0928503F0928603812C912C98
:1020F0004EE3A42E43E4B42E80927F03909280039B
:10210000A0928103B092820310937E0367E075E092
:1021100080E99BE00E94E06E40927A0350927B033C
:1021200060927C0370927D03C0927603D092770315
:10213000E0927803F0927903C0927203D092730315
:10214000E0927403F092750380926E0390926F0395
:10215000A0927003B092710310936D0367E075E075
:102160008AE89BE00E94E06E4092690350926A0305
:1021700060926B0370926C03C0926503D092660309
:10218000E0926703F0926803C0926103D092620309
:10219000E0926303F092640380925D0390925E0389
:1021A000A0925F03B092600310935C0367E075E058
:1021B00084E89BE00E94E06E4092580350925903DD
:1021C00060925A0370925B03C0925403D0925503FD
:1021D000E0925603F0925703C0925003D0925103FD
:1021E000E0925203F092530380924C0390924D037D
:1021F000A0924E03B0924F0310934B0367E075E03B
:102200008EE79BE00E94E06EC0924703D0924803A5
:10221000E0924903F0924A0380E090E0A6E9B4E43A
:102220008093430390934403A0934503B0934603E4
:1022300067E075E088E79BE00E94E06EC12CD12C3E
:1022400050E2E52E52E4F52EC0923F03D0924003B7
:10225000E0924103F092420380E090E0A0EAB2E411
:1022600080933B0390933C03A0933D03B0933E03C4
:1022700080E090E0ACE0B2E48093370390933803C1
:10228000A0933903B0933A03812C912C64E3A62EDA
:1022900062E4B62E8092330390923403A092350309
:1022A000B092360380E090E0AAEAB2E480932F0374
:1022B00090933003A0933103B0933203412C512CFF
:1022C00076E9672E72E4772E40922B0350922C030E
:1022D00060922D0370922E0367E075E082E79BE029
:1022E0000E94E06EC0922703D0922803E092290357
:1022F000F0922A0380E090E0A0EAB2E48093230306
:1023000090932403A0932503B093260380E090E0EC
:10231000ACE0B2E480931F0390932003A0932103C9
:10232000B093220380921B0390921C03A0921D0382
:10233000B0921E0380E090E0AAEAB2E48093170313
:1023400090931803A0931903B0931A0340921303B8
:1023500050921403609215037092160367E075E0C3
:102360008CE69BE00E94E06EC0920F03D0921003B7
:10237000E0921103F092120380E090E0A0EAB2E450
:1023800080930B0390930C03A0930D03B0930E0363
:1023900080E090E0ACE0B2E4809307039093080300
:1023A000A0930903B0930A0380920303909204035D
:1023B000A0920503B092060380E090E0AAEAB2E49E
:1023C0008093FF0290930003A0930103B093020354
:1023D0004092FB025092FC026092FD027092FE025B
:1023E00067E075E086E69BE00E94E06EC092F7022F
:1023F000D092F802E092F902F092FA0280E090E0C6
:10240000A0EAB2E48093F3029093F402A093F50261
:10241000B093F60280E090E0ACE0B2E48093EF028B
:102420009093F002A093F102B093F2028092EB023B
:102430009092EC02A092ED02B092EE0280E090E069
:10244000AAEAB2E48093E7029093E802A093E9023B
:10245000B093EA024092E3025092E4026092E502F5
:102460007092E60267E075E080E69BE00E94E06E15
:102470008AE999E9A9EBB0E48093DF029093E00246
:10248000A093E102B093E20286E696E6A6ECB0E401
:102490008093DB029093DC02A093DD02B093DE0216
:1024A00067E075E08AE59BE00E94E06E8AE999E9C1
:1024B000A9EBB0E48093D7029093D802A093D902FD
:1024C000B093DA0286E696E6A6ECB0E48093D302F7
:1024D0009093D402A093D502B093D60267E075E042
:1024E00084E59BE00E94E06EC092CF02D092D002C1
:1024F000E092D102F092D20280E090E0A0EAB2E451
:102500008093CB029093CC02A093CD02B093CE02E5
:1025100080E090E0ACE0B2E48093C7029093C80200
:10252000A093C902B093CA028092C3029092C402DF
:10253000A092C502B092C60280E090E0AAEAB2E49E
:102540008093BF029093C002A093C102B093C202D5
:102550004092BB025092BC026092BD027092BE02D9
:1025600067E075E080E49BE00E94E06E80E090E030
:10257000A0EFB1E48093AF029093B002A093B102B8
:10258000B093B20240E050E06EEB72E44093AB02D5
:102590005093AC026093AD027093AE0240E050E005
:1025A00068EC71E44093A7025093A8026093A902DB
:1025B0007093AA028093A3029093A402A093A50211
:1025C000B093A60240929F025092A0026092A10294
:1025D0007092A20280E090E0A0E7B2E480939B02B8
:1025E00090939C02A0939D02B0939E0267E075E0D9
:1025F0008AE39BE00E94E06E20E030E040E85FE389
:1026000020939702309398024093990250939A0234
:10261000412C512CE0E86E2EE1E47E2E4092930294
:1026200050929402609295027092960220938F02CB
:1026300030939002409391025093920240928B0209
:1026400050928C0260928D0270928E0210928A02D9
:1026500067E075E084E39BE029833A834B835C83E6
:102660000E94E06E29813A814B815C812093860231
:1026700030938702409388025093890240928202ED
:1026800050928302609284027092850220937E02AF
:1026900030937F02409380025093810240927A02ED
:1026A00050927B0260927C0270927D0210927902BD
:1026B00067E075E08EE29BE00E94E06EC0927502DA
:1026C000D0927602E0927702F092780280E090E079
:1026D000ACE5B2E48093710290937202A09373020E
:1026E000B0937402C0926D02D0926E02E0926F02BB
:1026F000F09270028092690290926A02A0926B023C
:10270000B0926C021092680267E075E088E29BE08C
:102710000E94E06E80E090E0A0EAB0E48093640262
:1027200090936502A0936602B093670280E090E503
:10273000A3ECB6E48093600290936102A0936202DE
:10274000B093630267E075E086E49BE00E94E06E70
:102750008AE999E9A9EBB0E48093B7029093B802B3
:10276000A093B902B093BA0286E696E6A6ECB0E46E
:102770008093B3029093B402A093B502B093B602D3
:1027800060E070E081E090E00E94B20660E070E0FE
:1027900082E090E00E94B20660E070E083E090E0AA
:1027A0000E94B20660E070E084E090E00E94B20611
:1027B00060E070E085E090E00E94B20660E070E0CA
:1027C00086E090E00E94B20660E070E087E090E072
:1027D0000E94B20660E070E088E090E00E94B206DD
:1027E0001092F70A1092F60A1092F50A1092F40A63
:1027F0001092F30A1092F20A1092F10A1092F00A63
:102800001092EF0A1092EE0A1092ED0A1092EC0A62
:102810001092EB0A1092EA0A1092E90A1092E80A62
:1028200060E086E090E00E943D0260E087E090E09A
:102830000E943D0260E088E090E00E943D0260E07E
:1028400089E090E00E943D0260E08AE090E00E9412
:102850003D0260E08BE090E00E943D0260E08CE091
:1028600090E00E943D0260E08DE090E00E943D0219
:1028700060E086E190E00E943D0260E087E190E048
:102880000E943D0260E088E190E00E943D0260E02D
:1028900089E190E00E943D0260E08AE190E00E94C0
:1028A0003D0260E08BE190E00E943D0260E08CE13F
:1028B00090E00E943D0260E08DE190E00E943D02C8
:1028C0004091DF025091E0026091E1027091E202DA
:1028D00081E790E00E942A044091DB025091DC02E3
:1028E0006091DD027091DE0285E790E00E942A048B
:1028F0004091D7025091D8026091D9027091DA02CA
:1029000089E790E00E942A044091D3025091D402BA
:102910006091D5027091D6028DE790E00E942A0462
:102920004091CF025091D0026091D1027091D202B9
:1029300081E890E00E942A044091CB025091CC02A1
:102940006091CD027091CE0285E890E00E942A0449
:102950004091C7025091C8026091C9027091CA02A9
:1029600089E890E00E942A044091C3025091C40279
:102970006091C5027091C6028DE890E00E942A0421
:102980004091BF025091C0026091C1027091C20299
:1029900081E990E00E942A044091BB025091BC0260
:1029A0006091BD027091BE0285E990E00E942A0408
:1029B0004091AF025091B0026091B1027091B202A9
:1029C00089E990E00E942A044091AB025091AC0248
:1029D0006091AD027091AE028DE990E00E942A04F0
:1029E0004091A7025091A8026091A9027091AA0299
:1029F00081EA90E00E942A044091A3025091A4022F
:102A00006091A5027091A60285EA90E00E942A04D6
:102A100040919F025091A0026091A1027091A20288
:102A200089EA90E00E942A0440919B0250919C0206
:102A300060919D0270919E028DEA90E00E942A04AE
:102A400040919702509198026091990270919A0278
:102A500081EB90E00E942A044091930250919402ED
:102A6000609195027091960285EB90E00E942A0495
:102A700040918F0250919002609191027091920268
:102A800089EB90E00E942A0440918B0250918C02C5
:102A900060918D0270918E028DEB90E00E942A046D
:102AA00080918A02882311F061E001C060E081EC2E
:102AB00090E00E943D024091860250918702609111
:102AC00088027091890282EC90E00E942A04409171
:102AD000820250918302609184027091850286EC9B
:102AE00090E00E942A0440917E0250917F02609102
:102AF0008002709181028AEC90E00E942A04409149
:102B00007A0250917B0260917C0270917D028EEC82
:102B100090E00E942A0480917902882311F061E0FC
:102B200001C060E082ED90E00E943D02409175029C
:102B300050917602609177027091780283ED90E077
:102B40000E942A04409171025091720260917302B6
:102B50007091740287ED90E00E942A0440916D020A
:102B600050916E0260916F02709170028BED90E057
:102B70000E942A044091690250916A0260916B029E
:102B800070916C028FED90E00E942A04809168029F
:102B9000882311F061E001C060E083EE90E00E94C4
:102BA0003D0240916402509165026091660270910D
:102BB000670284EE90E00E942A04409160025091E6
:102BC0006102609162027091630288EE90E00E945F
:102BD0002A046091A3038DE590E00E943D0260917C
:102BE000A1038EE590E00E943D026091EC0C8FE520
:102BF00090E00E943D0260919F0380E690E00E9479
:102C00003D0260919C0386E290E00E943D0260914B
:102C10009A0387E290E00E943D026091970388E268
:102C200090E00E943D026091950389E290E00E944D
:102C30003D02609193038AE290E00E943D02609120
:102C400091038BE290E00E943D02F0ECEF2EFCE05D
:102C5000FF2EA0E7CA2EACE0DA2EB0EA8B2EBCE045
:102C60009B2E00E51CE080E9682E8CE0782E90E435
:102C7000A92E9CE0B92E412C512C8091E00C909112
:102C8000E10C481659068CF5D7016C9111968C9180
:102C9000B2E0EB0EF11CF60160838183F2E0CF0E0F
:102CA000D11CD4018D919D914D01F80191838083B8
:102CB000D3018D913D01F5018083C2018C960E9464
:102CC0003D02D8016C91C201CC960E943D02F501F3
:102CD00061915F01C201845B9F4F0E943D02FFEF43
:102CE0004F1A5F0A0E5F1F4FC8CF40918B03509160
:102CF0008C0360918D0370918E038CEE90E00E94A6
:102D00002A04409187035091880360918903709150
:102D10008A0380EF90E00E942A044091830350913F
:102D20008403609185037091860384EF90E00E9494
:102D30002A0440917F035091800360918103709138
:102D4000820388EF90E00E942A0480917E0388230A
:102D500011F061E001C060E08CEF90E00E943D0264
:102D600040917A0350917B0360917C0370917D03C5
:102D70008DEF90E00E942A044091760350917703F2
:102D8000609178037091790381E091E00E942A04B8
:102D900040917203509173036091740370917503B5
:102DA00085E091E00E942A0440916E0350916F03E8
:102DB000609170037091710389E091E00E942A0490
:102DC00080916D03882311F061E001C060E08DE027
:102DD00091E00E943D024091690350916A03609125
:102DE0006B0370916C038EE091E00E942A04409185
:102DF000650350916603609167037091680382E1F7
:102E000091E00E942A044091610350916203609115
:102E100063037091640386E191E00E942A0440916B
:102E20005D0350915E0360915F03709160038AE1DE
:102E300091E00E942A0480915C03882311F061E0F4
:102E400001C060E08EE191E00E943D024091580394
:102E50005091590360915A0370915B038FE191E0A7
:102E60000E942A04409154035091550360915603E7
:102E70007091570383E291E00E942A04409150032D
:102E800050915103609152037091530387E291E096
:102E90000E942A0440914C0350914D0360914E03CF
:102EA00070914F038BE291E00E942A0480915C03B1
:102EB000882311F061E001C060E08FE291E00E94A0
:102EC0003D0240914703509148036091490370913E
:102ED0004A0380E391E00E942A0440914303509109
:102EE0004403609145037091460384E391E00E949E
:102EF0002A044091B7025091B8026091B9027091D2
:102F0000BA0288E391E00E942A044091B3025091F2
:102F1000B4026091B5027091B6028CE391E00E9418
:102F20002A0440913F035091400360914103709106
:102F3000420384EF91E00E942A0440913B035091A8
:102F40003C0360913D0370913E0388EF91E00E9445
:102F50002A044091370350913803609139037091EE
:102F60003A038CEF91E00E942A0440913303509180
:102F70003403609135037091360380E092E00E9443
:102F80002A0440912F0350913003609131037091D6
:102F9000320384E092E00E942A0440912B03509176
:102FA0002C0360912D0370912E0388E092E00E9423
:102FB0002A044091270350912803609129037091BE
:102FC0002A038CE092E00E942A044091230350914E
:102FD0002403609125037091260380E192E00E9412
:102FE0002A0440911F0350912003609121037091A6
:102FF000220384E192E00E942A0440911B03509135
:103000001C0360911D0370911E0388E192E00E94F1
:103010002A0440911703509118036091190370918D
:103020001A038CE192E00E942A044091130350910C
:103030001403609115037091160380E292E00E94E0
:103040002A0440910F035091100360911103709175
:10305000120384E292E00E942A0440910B035091F3
:103060000C0360910D0370910E0388E292E00E94C0
:103070002A0440910703509108036091090370915D
:103080000A038CE292E00E942A04409103035091CB
:103090000403609105037091060380E392E00E94AF
:1030A0002A044091FF025091000360910103709146
:1030B000020384E392E00E942A044091FB025091B3
:1030C000FC026091FD027091FE0288E392E00E9492
:1030D0002A044091F7025091F8026091F902709130
:1030E000FA028CE392E00E942A044091F30250918C
:1030F000F4026091F5027091F60280E492E00E9481
:103100002A044091EF025091F0026091F102709117
:10311000F20284E492E00E942A044091EB02509172
:10312000EC026091ED027091EE0288E492E00E9460
:103130002A044091E7025091E8026091E9027091FF
:10314000EA028CE492E00E942A044091E30250914A
:10315000E4026091E5027091E60280E592E00E944F
:103160002A0460918C0D80E090E00E943D02609105
:103170008A0D81E090E00E943D026091880D82E01E
:1031800090E00E943D026091900D83E090E00E94EB
:103190003D026091920D84E090E00E943D026091BA
:1031A0008E0D85E090E00E943D02E0908E0DF09043
:1031B0008F0D0091920D1091930D2091900D3091F3
:1031C000910D4091880D5091890D60918A0D7091FB
:1031D0008B0D80918C0D90918D0D0E940E5B89E17D
:1031E00095E60F900F900F900F90DF91CF911F9168
:1031F0000F91FF90EF90DF90CF90BF90AF909F9096
:103200008F907F906F905F904F900C94305B809187
:103210009C0D90919D0DAC014D7F9C01297F21302B
:10322000310549F02930310531F04131510519F0AE
:10323000459709F012C20E94600287E29FE00E9457
:10324000936C6AE075E087E29FE00E948B6C65E416
:1032500074E087E29FE00E948B6C6DE375E087E28B
:103260009FE00E948B6C0E94065B4AE050E0BC012C
:1032700087E29FE00E944A6D6DE375E087E29FE080
:103280000E948B6C0E94005B4AE050E0BC0187E228
:103290009FE00E944A6D6DE375E087E29FE00E9427
:1032A0008B6C0E940C5B4AE050E0BC0187E29FE01F
:1032B0000E944A6D6DE375E087E29FE00E948B6C8F
:1032C0000E94E75A4AE050E0BC0187E29FE00E947A
:1032D0004A6D6DE375E087E29FE00E948B6C0E946F
:1032E000F45A4AE050E0BC0187E29FE00E944A6D38
:1032F0006DE375E087E29FE00E948B6C0E94FA5AB2
:103300004AE050E0BC0187E29FE00E94516D60E11D
:1033100075E087E29FE00E948B6C40910A0C50910F
:103320000B0C60910C0C70910D0C22E030E087E2E8
:103330009FE00E943E6E6DE375E087E29FE00E9491
:103340008B6C4091060C5091070C6091080C7091A9
:10335000090C22E030E087E29FE00E943E6E6DE3C0
:1033600075E087E29FE00E948B6C4091020C5091C7
:10337000030C6091040C7091050C22E030E087E2B0
:103380009FE00E943E6E6DE375E087E29FE00E9441
:103390008B6C4091FA0B5091FB0B6091FC0B709180
:1033A000FD0B22E030E087E29FE00E943E6E6DE37D
:1033B00075E087E29FE00E948B6C4091F60B509184
:1033C000F70B6091F80B7091F90B22E030E087E287
:1033D0009FE00E943E6E6DE375E087E29FE00E94F1
:1033E0008B6C4091F20B5091F30B6091F40B709148
:1033F000F50B22E030E087E29FE00E943E6E6DE335
:1034000075E087E29FE00E948B6C4091EE0B50913B
:10341000EF0B6091F00B7091F10B22E030E087E24E
:103420009FE00E943E6E6DE375E087E29FE00E94A0
:103430008B6C4091EA0B5091EB0B6091EC0B70910F
:10344000ED0B22E030E087E29FE00E943E6E6DE3EC
:1034500075E087E29FE00E948B6C4091FE0B5091DB
:10346000FF0B6091000C7091010C22E030E087E2CC
:103470009FE00E943E6E6DE375E087E29FE00E9450
:103480008B6C4091C20B5091C30B6091C40B709137
:10349000C50B22E030E087E29FE00E943E6E6DE3C4
:1034A00075E087E29FE00E948B6C4091BE0B5091CB
:1034B000BF0B6091C00B7091C10B22E030E087E23E
:1034C0009FE00E943E6E6DE375E087E29FE00E9400
:1034D0008B6C4091BA0B5091BB0B6091BC0B7091FF
:1034E000BD0B22E030E087E29FE00E943E6E6DE37C
:1034F00075E087E29FE00E948B6C4091D60B509163
:10350000D70B6091D80B7091D90B22E030E087E2A5
:103510009FE00E943E6E6DE375E087E29FE00E94AF
:103520008B6C4091E60B5091E70B6091E80B70912A
:10353000E90B22E030E087E29FE00E943E6E6DE3FF
:1035400075E087E29FE00E948B6C4091E20B509106
:10355000E30B6091E40B7091E50B22E030E087E231
:103560009FE00E943E6E6DE375E087E29FE00E945F
:103570008B6C4091DE0B5091DF0B6091E00B7091F2
:10358000E10B22E030E087E29FE00E943E6E6DE3B7
:1035900075E087E29FE00E948B6C4091DA0B5091BE
:1035A000DB0B6091DC0B7091DD0B22E030E087E2F9
:1035B0009FE00E943E6E6DE375E087E29FE00E940F
:1035C0008B6C4091D20B5091D30B6091D40B7091C6
:1035D000D50B22E030E087E29FE00E943E6E6DE373
:1035E00075E087E29FE00E948B6C4091CE0B50917A
:1035F000CF0B6091D00B7091D10B22E030E087E2CD
:103600009FE00E943E6E6DE375E087E29FE00E94BE
:103610008B6C4091CA0B5091CB0B6091CC0B70918D
:10362000CD0B22E030E087E29FE00E943E6E6DE32A
:1036300075E087E29FE00E948B6C4091C60B509131
:10364000C70B6091C80B7091C90B22E030E087E294
:103650009FE00E943F6E0E943A0580919C0D9091E0
:103660009D0D039709F0ADC069E175E087E29FE029
:103670000E948B6C6091A3037091A4034AE050E018
:1036800087E29FE00E944A6D6DE375E087E29FE06C
:103690000E948B6C6091EC0C7091ED0C4AE050E054
:1036A00087E29FE00E944A6D6DE375E087E29FE04C
:1036B0000E948B6C6091A1037091A2034AE050E0DC
:1036C00087E29FE00E944A6D6DE375E087E29FE02C
:1036D0000E948B6C60919F037091A0034AE050E0C0
:1036E00087E29FE00E94516D69E275E087E29FE00A
:1036F0000E948B6C60919C0370919D034AE050E0A6
:1037000087E29FE00E944A6D6DE375E087E29FE0EB
:103710000E948B6C60919A0370919B034AE050E089
:1037200087E29FE00E944A6D6DE375E087E29FE0CB
:103730000E948B6C80919903882319F06AE475E0EC
:1037400002C06CE375E087E29FE00E948B6C6091A1
:103750009703709198034AE050E087E29FE00E944F
:103760004A6D6DE375E087E29FE00E948B6C60918B
:103770009503709196034AE050E087E29FE00E9433
:103780004A6D6DE375E087E29FE00E948B6C60916B
:103790009303709194034AE050E087E29FE00E9417
:1037A0004A6D6DE375E087E29FE00E948B6C60914B
:1037B0009103709192034AE050E087E29FE00E94FB
:1037C000516D80919C0D90919D0D0497A1F56FE333
:1037D00075E087E29FE00E948B6C4091DF02509180
:1037E000E0026091E1027091E20222E030E087E2C3
:1037F0009FE00E943E6E6DE375E087E29FE00E94CD
:103800008B6C4091DB025091DC026091DD02709183
:10381000DE0222E030E087E29FE00E943E6E6DE330
:1038200075E087E29FE00E948B6C60E67BE087E2B8
:103830009FE00E94966C80919C0D90919D0D059744
:10384000A1F56DE475E087E29FE00E948B6C4091EA
:10385000D7025091D8026091D9027091DA0222E029
:1038600030E087E29FE00E943E6E6DE375E087E204
:103870009FE00E948B6C4091D3025091D4026091E2
:10388000D5027091D60222E030E087E29FE00E94EC
:103890003E6E6DE375E087E29FE00E948B6C6AE507
:1038A0007BE087E29FE00E94966C80919C0D909156
:1038B0009D0D069709F084C06BE575E087E29FE0F7
:1038C0000E948B6C4091CF025091D0026091D10246
:1038D0007091D20222E030E087E29FE00E943E6ECB
:1038E0006DE375E087E29FE00E948B6C4091CB0214
:1038F0005091CC026091CD027091CE0222E030E076
:1039000087E29FE00E943E6E6DE375E087E29FE0F4
:103910000E948B6C4091C7025091C8026091C9020D
:103920007091CA0222E030E087E29FE00E943E6E82
:103930006DE375E087E29FE00E948B6C4091C302CB
:103940005091C4026091C5027091C60222E030E03D
:1039500087E29FE00E943E6E6DE375E087E29FE0A4
:103960000E948B6C4091BF025091C0026091C102D5
:103970007091C20222E030E087E29FE00E943E6E3A
:103980006DE375E087E29FE00E948B6C4091BB0283
:103990005091BC026091BD027091BE0222E030E005
:1039A00087E29FE00E943E6E6DE375E087E29FE054
:1039B0000E948B6C64E57BE087E29FE00E94966C3E
:1039C00080919C0D90919D0D079709F084C06AE647
:1039D00075E087E29FE00E948B6C4091AF025091AE
:1039E000B0026091B1027091B20222E030E087E251
:1039F0009FE00E943E6E6DE375E087E29FE00E94CB
:103A00008B6C4091AB025091AC026091AD02709111
:103A1000AE0222E030E087E29FE00E943E6E6DE35E
:103A200075E087E29FE00E948B6C4091A702509165
:103A3000A8026091A9027091AA0222E030E087E218
:103A40009FE00E943E6E6DE375E087E29FE00E947A
:103A50008B6C4091A3025091A4026091A5027091D9
:103A6000A60222E030E087E29FE00E943E6E6DE316
:103A700075E087E29FE00E948B6C40919F0250911D
:103A8000A0026091A1027091A20222E030E087E2E0
:103A90009FE00E943E6E6DE375E087E29FE00E942A
:103AA0008B6C40919B0250919C0260919D027091A1
:103AB0009E0222E030E087E29FE00E943E6E6DE3CE
:103AC00075E087E29FE00E948B6C60E47BE087E218
:103AD0009FE00E94966C80919C0D90919D0D08979F
:103AE00009F06BC067E775E087E29FE00E948B6C8E
:103AF00040919702509198026091990270919A02B8
:103B000022E030E087E29FE00E943E6E6DE375E0C8
:103B100087E29FE00E948B6C409193025091940247
:103B2000609195027091960222E030E087E29FE07A
:103B30000E943E6E6DE375E087E29FE00E948B6C11
:103B400040918F0250919002609191027091920287
:103B500022E030E087E29FE00E943E6E6DE375E078
:103B600087E29FE00E948B6C40918B0250918C0207
:103B700060918D0270918E0222E030E087E29FE03A
:103B80000E943E6E6DE375E087E29FE00E948B6CC1
:103B900060918A0270E04AE050E087E29FE00E9474
:103BA0004A6D6DE375E087E29FE00E948B6C6AE3EB
:103BB0007BE087E29FE00E94966C80919C0D909143
:103BC0009D0D099709F06BC066E875E087E29FE0FC
:103BD0000E948B6C4091860250918702609188020E
:103BE0007091890222E030E087E29FE00E943E6E01
:103BF0006DE375E087E29FE00E948B6C409182024A
:103C000050918302609184027091850222E030E03D
:103C100087E29FE00E943E6E6DE375E087E29FE0E1
:103C20000E948B6C40917E0250917F0260918002D5
:103C30007091810222E030E087E29FE00E943E6EB8
:103C40006DE375E087E29FE00E948B6C40917A0201
:103C500050917B0260917C0270917D0222E030E005
:103C600087E29FE00E943E6E6DE375E087E29FE091
:103C70000E948B6C6091790270E04AE050E087E22C
:103C80009FE00E944A6D6DE375E087E29FE00E942D
:103C90008B6C64E37BE087E29FE00E94966C8091EE
:103CA0009C0D90919D0D0A9709F06BC065E975E038
:103CB00087E29FE00E948B6C4091750250917602E2
:103CC000609177027091780222E030E087E29FE015
:103CD0000E943E6E6DE375E087E29FE00E948B6C70
:103CE000409171025091720260917302709174025E
:103CF00022E030E087E29FE00E943E6E6DE375E0D7
:103D000087E29FE00E948B6C40916D0250916E02A1
:103D100060916F027091700222E030E087E29FE0D4
:103D20000E943E6E6DE375E087E29FE00E948B6C1F
:103D30004091690250916A0260916B0270916C022D
:103D400022E030E087E29FE00E943E6E6DE375E086
:103D500087E29FE00E948B6C6091680270E04AE00D
:103D600050E087E29FE00E944A6D6DE375E087E2D4
:103D70009FE00E948B6C6EE27BE087E29FE00E94F6
:103D8000966C80919C0D90919D0D0B97A1F563EA27
:103D900075E087E29FE00E948B6C40916402509135
:103DA0006502609166027091670222E030E087E26E
:103DB0009FE00E943E6E6DE375E087E29FE00E9407
:103DC0008B6C40916002509161026091620270912F
:103DD000630222E030E087E29FE00E943E6E6DE3E6
:103DE00075E087E29FE00E948B6C68E27BE087E2EF
:103DF0009FE00E94966C80919C0D90919D0D0D9777
:103E0000A1F563EB75E087E29FE00E948B6C409127
:103E1000B7025091B8026091B9027091BA0222E0E3
:103E200030E087E29FE00E943E6E6DE375E087E23E
:103E30009FE00E948B6C4091B3025091B40260915C
:103E4000B5027091B60222E030E087E29FE00E9466
:103E50003E6E6DE375E087E29FE00E948B6C66E446
:103E60007BE087E29FE00E94966C80919C0D909190
:103E70009D0D0E97A1F563EC75E087E29FE00E942F
:103E80008B6C4091470350914803609149037091B6
:103E90004A0322E030E087E29FE00E943E6E6DE33D
:103EA00075E087E29FE00E948B6C40914303509144
:103EB0004403609145037091460322E030E087E2BD
:103EC0009FE00E943E6E6DE375E087E29FE00E94F6
:103ED0008B6C6EE77BE087E29FE00E94966C80919E
:103EE0009C0D90919D0D0F9709F06BC067ED75E0EB
:103EF00087E29FE00E948B6C40918B0350918C0372
:103F000060918D0370918E0322E030E087E29FE0A4
:103F10000E943E6E6DE375E087E29FE00E948B6C2D
:103F200040918703509188036091890370918A03BF
:103F300022E030E087E29FE00E943E6E6DE375E094
:103F400087E29FE00E948B6C409183035091840331
:103F5000609185037091860322E030E087E29FE064
:103F60000E943E6E6DE375E087E29FE00E948B6CDD
:103F700040917F035091800360918103709182038F
:103F800022E030E087E29FE00E943E6E6DE375E044
:103F900087E29FE00E948B6C60917E0370E04AE0B4
:103FA00050E087E29FE00E944A6D6DE375E087E292
:103FB0009FE00E948B6C66E97BE087E29FE00E94B5
:103FC000966C80919C0D90919D0D409709F06BC06F
:103FD00067EE75E087E29FE00E948B6C40917A0368
:103FE00050917B0360917C0370917D0322E030E06F
:103FF00087E29FE00E943E6E6DE375E087E29FE0FE
:104000000E948B6C40917603509177036091780306
:104010007091790322E030E087E29FE00E943E6EDB
:104020006DE375E087E29FE00E948B6C4091720324
:1040300050917303609174037091750322E030E036
:1040400087E29FE00E943E6E6DE375E087E29FE0AD
:104050000E948B6C40916E0350916F0360917003CE
:104060007091710322E030E087E29FE00E943E6E93
:104070006DE375E087E29FE00E948B6C60916D03B9
:1040800070E04AE050E087E29FE00E944A6D6DE3F5
:1040900075E087E29FE00E948B6C60E97BE087E23D
:1040A0009FE00E94966C80919C0D90919D0D419790
:1040B00009F06BC067EF75E087E29FE00E948B6CB0
:1040C0004091690350916A0360916B0370916C0396
:1040D00022E030E087E29FE00E943E6E6DE375E0F3
:1040E00087E29FE00E948B6C4091650350916603CC
:1040F000609167037091680322E030E087E29FE0FF
:104100000E943E6E6DE375E087E29FE00E948B6C3B
:104110004091610350916203609163037091640365
:1041200022E030E087E29FE00E943E6E6DE375E0A2
:1041300087E29FE00E948B6C40915D0350915E038B
:1041400060915F037091600322E030E087E29FE0BE
:104150000E943E6E6DE375E087E29FE00E948B6CEB
:1041600060915C0370E04AE050E087E29FE00E94CB
:104170004A6D6DE375E087E29FE00E948B6C6AE810
:104180007BE087E29FE00E94966C80919C0D90916D
:104190009D0D429709F06FC067E076E087E29FE0EF
:1041A0000E948B6C409158035091590360915A03BF
:1041B00070915B0322E030E087E29FE00E943E6E58
:1041C0006DE375E087E29FE00E948B6C40915403A1
:1041D00050915503609156037091570322E030E0EF
:1041E00087E29FE00E943E6E6DE375E087E29FE00C
:1041F0000E948B6C40915003509151036091520387
:104200007091530322E030E087E29FE00E943E6E0F
:104210006DE375E087E29FE00E948B6C40914C0358
:1042200050914D0360914E0370914F0322E030E0B6
:1042300087E29FE00E943E6E6DE375E087E29FE0BB
:104240000E948B6C60914B0370E04AE050E087E283
:104250009FE00E944A6D6DE375E087E29FE00E9457
:104260008B6C64E87BE087E29FE00E94966C109282
:104270009D0D10929C0D80919C0D90919D0D4397EA
:1042800009F084C067E176E087E29FE00E948B6CD2
:1042900040913F035091400360914103709142036C
:1042A00022E030E087E29FE00E943E6E6DE375E021
:1042B00087E29FE00E948B6C40913B0350913C034E
:1042C00060913D0370913E0322E030E087E29FE081
:1042D0000E943E6E6DE375E087E29FE00E948B6C6A
:1042E00040913703509138036091390370913A033C
:1042F00022E030E087E29FE00E943E6E6DE375E0D1
:1043000087E29FE00E948B6C40913303509134030D
:10431000609135037091360322E030E087E29FE040
:104320000E943E6E6DE375E087E29FE00E948B6C19
:1043300040912F035091300360913103709132030B
:1043400022E030E087E29FE00E943E6E6DE375E080
:1043500087E29FE00E948B6C40912B0350912C03CD
:1043600060912D0370912E0322E030E087E29FE000
:104370000E943E6E6DE375E087E29FE00E948B6CC9
:1043800068E77BE087E29FE00E94966C80919C0D3D
:1043900090919D0D449709F084C06DE276E087E22C
:1043A0009FE00E948B6C40912703509128036091FD
:1043B000290370912A0322E030E087E29FE00E9407
:1043C0003E6E6DE375E087E29FE00E948B6C40914A
:1043D000230350912403609125037091260322E06A
:1043E00030E087E29FE00E943E6E6DE375E087E279
:1043F0009FE00E948B6C40911F03509120036091BD
:1044000021037091220322E030E087E29FE00E94C6
:104410003E6E6DE375E087E29FE00E948B6C4091F9
:104420001B0350911C0360911D0370911E0322E039
:1044300030E087E29FE00E943E6E6DE375E087E228
:104440009FE00E948B6C409117035091180360917C
:10445000190370911A0322E030E087E29FE00E9486
:104460003E6E6DE375E087E29FE00E948B6C4091A9
:10447000130350911403609115037091160322E009
:1044800030E087E29FE00E943E6E6DE375E087E2D8
:104490009FE00E948B6C62E77BE087E29FE00E94D6
:1044A000966C80919C0D90919D0D459709F084C06C
:1044B00063E476E087E29FE00E948B6C40910F03FB
:1044C00050911003609111037091120322E030E0CB
:1044D00087E29FE00E943E6E6DE375E087E29FE019
:1044E0000E948B6C40910B0350910C0360910D0363
:1044F00070910E0322E030E087E29FE00E943E6E62
:104500006DE375E087E29FE00E948B6C40910703AA
:10451000509108036091090370910A0322E030E092
:1045200087E29FE00E943E6E6DE375E087E29FE0C8
:104530000E948B6C4091030350910403609105032A
:104540007091060322E030E087E29FE00E943E6E19
:104550006DE375E087E29FE00E948B6C4091FF0263
:1045600050910003609101037091020322E030E05A
:1045700087E29FE00E943E6E6DE375E087E29FE078
:104580000E948B6C4091FB025091FC026091FD02F5
:104590007091FE0222E030E087E29FE00E943E6ED2
:1045A0006DE375E087E29FE00E948B6C6CE67BE038
:1045B00087E29FE00E94966C80919C0D90919D0DEA
:1045C000469709F088C069E576E087E29FE00E949F
:1045D0008B6C4091F7025091F8026091F902709152
:1045E000FA0222E030E087E29FE00E943E6E6DE337
:1045F00075E087E29FE00E948B6C4091F30250913E
:10460000F4026091F5027091F60222E030E087E258
:104610009FE00E943E6E6DE375E087E29FE00E949E
:104620008B6C4091EF025091F0026091F102709119
:10463000F20222E030E087E29FE00E943E6E6DE3EE
:1046400075E087E29FE00E948B6C4091EB025091F5
:10465000EC026091ED027091EE0222E030E087E220
:104660009FE00E943E6E6DE375E087E29FE00E944E
:104670008B6C4091E7025091E8026091E9027091E1
:10468000EA0222E030E087E29FE00E943E6E6DE3A6
:1046900075E087E29FE00E948B6C4091E3025091AD
:1046A000E4026091E5027091E60222E030E087E2E8
:1046B0009FE00E943E6E6DE375E087E29FE00E94FE
:1046C0008B6C66E67BE087E29FE00E94966C10921E
:1046D0009D0D10929C0D80919C0D90919D0D0196C9
:1046E00090939D0D80939C0D08952AE030E03093C7
:1046F000900320938F038130910599F480911802E3
:10470000909119028130910521F59093F70A8093D9
:10471000F60A61E086E090E00E943D0261E070E010
:1047200014C08D7F892BA9F48091180290911902F1
:10473000019779F41092F70A1092F60A60E086E089
:1047400090E00E943D0260E070E081E090E00C9417
:10475000B20608952F923F924F925F926F927F928E
:104760008F929F92AF92BF92CF92DF92EF92FF9281
:104770000F931F93CF93DF9380910A0290910B02C6
:10478000019709F09FC02091A3033091A403809169
:10479000A1039091A203281739070CF041C00E9491
:1047A000E75A2091A3033091A40382179307C4F121
:1047B0000E94E75A2091A1033091A20328173907DC
:1047C0007CF10E94E75A2091A1033091A203821745
:1047D000930751F40E94F45A20919F033091A00353
:1047E000821793070CF458C00E94E75A2091A30344
:1047F0003091A4038217930751F40E94F45A209138
:10480000EC0C3091ED0C821793070CF045C00E9420
:10481000E75A2091A1033091A2038217930709F56B
:104820002091A3033091A4038091A1039091A2034E
:10483000821793070CF049C10E94E75A2091A10307
:104840003091A203281739070CF0EFC00E94E75AF5
:104850002091A3033091A403821793070CF0E5C0C5
:1048600034C10E94E75A2091A3033091A403821718
:104870009307B1F20E94E75A2091A3033091A40359
:10488000281739076CF60E94E75A2091A10330914E
:10489000A2038217930724F680910A0290910B02DB
:1048A0008130910579F49093E90A8093E80A61E0F8
:1048B0008DE190E00E943D0261E070E088E090E0D0
:1048C0000E94B206F0E74F2EFCE05F2EA0E56A2EB4
:1048D000ACE07A2EB0E4AB2EBCE0BB2ECCE32C2EA9
:1048E000312C8091910390919203950120543C408A
:1048F000281739070CF084C0F201C191D1912F0122
:10490000F301E190F1903F01C0909303D0909403A4
:10491000CE0CDF1CF50181915F01811104C0CC3008
:10492000D10531F02C96C831D10511F4CCE0D0E09E
:10493000FCE3EF16F10444F0C1018E199F097C01DC
:104940008E010F5F1F4F01C08E010831110514F059
:10495000085111099CE3C916D10424F0ECE3CE1AE6
:10496000D1082196C831D1050CF06897073111059F
:10497000D1F4C731D105BCF40E94E75A479741F4FE
:104980000E94F45A8E159F051CF081E090E03AC019
:104990000E94E75A8C179D07C4F30E94E75A8C17B0
:1049A0009D0709F4A5C00E94E75A4C0180179107A2
:1049B000D1F40E94E75AC817D907ACF00E94F45A04
:1049C0008E159F0584F0C017D10709F4E2C00E943C
:1049D000E75A8C179D0709F492C00E94E75A881580
:1049E000990509F492C00E94E75A081719070CF0BC
:1049F00098C00E94E75A8C179D070CF092C0C5CF53
:104A000082E090E0DF91CF911F910F91FF90EF90A6
:104A1000DF90CF90BF90AF909F908F907F906F90DE
:104A20005F904F903F902F9060CE0E94E75A209168
:104A3000A1033091A2038217930751F40E94F45A04
:104A400020919F033091A003821793070CF424CF89
:104A50000E94E75A2091A3033091A4038217930781
:104A600051F40E94F45A2091EC0C3091ED0C821715
:104A700093070CF011CF0E94E75A2091A1033091C7
:104A8000A2038217930709F10E94E75A2091A3031A
:104A90003091A40382179307C1F00E94E75A209136
:104AA000A3033091A403281739072CF40E94E75A76
:104AB00048970CF4F1CE0E94E75A2091A10330915F
:104AC000A203821793070CF4E7CE80910A0290911B
:104AD0000B02019709F0F6CE1092E90A1092E80A4B
:104AE00060E08DE190E00E943D0260E070E0E6CE83
:104AF0000E94F45A8C159D050CF055CF46CF0E94AC
:104B0000F45A8C159D0544F440CF0E94F45A8E153A
:104B10009F050CF468CF39CFC017D10709F05DCFDE
:104B200038C00E94E75A801791070CF4DACE0E9431
:104B3000E75A4C018C179D0709F0D3CEC017D10757
:104B4000D9F00E94E75A8C179D0731F40E94F45A5D
:104B50008C159D050CF419CF0E94E75A8017910718
:104B600009F0BFCE0E94F45A8E159F050CF00DCFB0
:104B70008016910609F0B5CE0E94F45A8E159F0555
:104B80000CF4AFCE0E94F45A8C159D050CF0A9CE02
:104B9000FCCE0E94F45A8E159F050CF424CF0E947F
:104BA000F45A8C159D050CF01ECFEFCECF93DF93FA
:104BB000C82FD62F61E00E94B76860E08D2F0E9459
:104BC000B76860E08C2F0E94F06882E090E00E945D
:104BD000CE6761E08C2F0E94F0688AE090E00E942E
:104BE000CE6760E08C2F0E94F06820E533EC40E057
:104BF00050E061E08D2F0E944D696093B60B709379
:104C0000B70B8093B80B9093B90B24E930E040E0E8
:104C100050E00E946F732093B20B3093B30B40931C
:104C2000B40B5093B50B22323105410551056CF0A0
:104C300081E290E0A0E0B0E08093B20B9093B30BE0
:104C4000A093B40BB093B50B3BC061E270E080E081
:104C500090E0621B730B840B950B0E9413726093A0
:104C6000AE0B7093AF0B8093B00B9093B10B2CED08
:104C700039EB4FEC53E40E94C7726093AA0B709318
:104C8000AB0B8093AC0B9093AD0B28E23EE346E870
:104C90005CE30E94C7729B01AB01BC014093A60B71
:104CA0005093A70B6093A80B7093A90B4093A20B92
:104CB0005093A30B6093A40B7093A50B582F492F0F
:104CC000B901852F942FDF91CF9108956AED7AE095
:104CD0008FE99DE00E94B66E68E776E086EF9CE083
:104CE0000E94B66E61E876E08CEF9CE00E94B66EA2
:104CF0006AE876E082E09DE00E94B66E63E976E0C5
:104D000088E09DE00E94B66E6CE976E08EE09DE062
:104D10000E94B66E65EA76E084E19DE00E94B66E80
:104D20006EEA76E08AE19DE00E94B66E67EB76E07F
:104D300080E29DE00E94B66E60EC76E086E29DE047
:104D40000E94B66E69EC76E08CE29DE00E94B66E41
:104D500062ED76E082E39DE00E94B66E6BED76E058
:104D600088E39DE00E94B66E64EE76E08EE39DE0FF
:104D70000E94B66E6DEE76E084E49DE00E94B66E11
:104D800066EF76E08AE49DE00E94B66E6FEF76E013
:104D900080E59DE00E94B66E68E077E086E59DE0E4
:104DA0000E94B66E61E177E08CE59DE00E94B66EF0
:104DB0006AE177E082E69DE00E94B66E63E277E00A
:104DC00088E69DE00E94B66E6CE277E08EE69DE09C
:104DD0000E94B66E65E377E084E79DE00E94B66EC0
:104DE0006EE377E08AE79DE00E94B66E67E477E0C5
:104DF00080E89DE00E94B66E8EE99BE00E944065CF
:104E000067E075E086E99BE00E94B66E67E075E0BA
:104E100080E99BE00E94B66E67E075E08AE89BE05F
:104E20000E94B66E67E075E084E89BE00E94B66E73
:104E300067E075E08EE79BE00E94B66E67E075E084
:104E400088E79BE00E94B66E67E075E082E79BE032
:104E50000E94B66E67E075E08CE69BE00E94B66E3D
:104E600067E075E086E69BE00E94B66E67E075E05D
:104E700080E69BE00E94B66E67E075E08AE59BE005
:104E80000E94B66E67E075E084E59BE00E94B66E16
:104E900060E577E08EE49BE00E94B66E67E075E027
:104EA00086E49BE00E94B66E67E075E080E49BE0DC
:104EB0000E94B66E67E075E08AE39BE00E94B66EE2
:104EC00067E075E084E39BE00E94B66E67E075E002
:104ED0008EE29BE00E94B66E67E075E088E29BE0A0
:104EE0000E94B66E68E088E19BE00E943F6168E145
:104EF0007BE085E09BE00E94056246E16BE088EF85
:104F00009AE00C946C5BCF93DF9388E29BE00E9465
:104F10004F6E8EE29BE00E944F6E84E39BE00E9406
:104F20004F6E8AE39BE00E944F6E80E49BE00E94FC
:104F30004F6E86E49BE00E944F6E8EE49BE00E94E1
:104F40004F6E84E59BE00E944F6E8AE59BE00E94D5
:104F50004F6E80E69BE00E944F6E86E69BE00E94CB
:104F60004F6E8CE69BE00E944F6E82E79BE00E94B2
:104F70004F6E88E79BE00E944F6E8EE79BE00E9499
:104F80004F6E84E89BE00E944F6E8AE89BE00E948F
:104F90004F6E80E99BE00E944F6E86E99BE00E9485
:104FA0004F6EC6E8DDE02697CE010E944F6E8CE082
:104FB000C63FD807C1F78FE99DE0DF91CF910C94F0
:104FC0004F6ECF93DF93EC01BC0180EC9DE00E941B
:104FD0008A5D42E050E0BE0180EC9DE00E94FA5DF7
:104FE000C0E080EC9DE00E94E25C892B59F080ECEF
:104FF0009DE00E94EA5CEC2FF0E0EA5DF44F8083D4
:10500000CF5FEFCF80EC9DE00E94FC5D8C2FDF91A5
:10501000CF9108954F925F926F927F928F929F925D
:10502000AF92BF92CF92DF92EF92FF920F931F93B6
:10503000CF93DF93CDB7DEB7CE5DD1090FB6F8942D
:10504000DEBF0FBECDBF81E00E943B6810923F0CD7
:1050500010923E0C10920A0C10920B0C10920C0C39
:1050600010920D0C46E050E06FE374E0CE018B52DD
:105070009F4F0E943F02C0900A0CD0900B0CE09012
:105080000C0CF0900D0C20E030E040E251E4C70140
:10509000B6010E94747187FF12C06BE677E0CE0103
:1050A0008B529F4F0E948B6C40910A0C50910B0CBD
:1050B00060910C0C70910D0C22E030E004C022E0F5
:1050C00030E0B701A601CE018B529F4F0E943F6E88
:1050D00010923D0C10923C0C1092060C1092070C92
:1050E0001092080C1092090C46E050E069E374E05D
:1050F000CE0185539F4F0E943F02C090060CD09076
:10510000070CE090080CF090090C20E030E040EA39
:1051100051E4C701B6010E94747187FF12C06BE6AB
:1051200077E0CE0185539F4F0E948B6C4091060C17
:105130005091070C6091080C7091090C22E030E04E
:1051400004C022E030E0B701A601CE0185539F4F95
:105150000E943F6E60E088EF9AE00E941F5C0E9410
:10516000E07170933B0C60933A0C49E0469F9001CC
:10517000479F300D11242E5F3F4FC90165E070E05D
:105180000E943A73605E7F4F882777FD8095982F45
:105190000E9413726093020C7093030C8093040CB2
:1051A0009093050C9B01AC010E942A73882341F067
:1051B0001092020C1092030C1092040C1092050C29
:1051C00048E050E064E97DE0CE018F539F4F0E949C
:1051D0003F024091020C5091030C6091040C7091BD
:1051E000050C22E030E0CE018F539F4F0E943E6EAF
:1051F00068E577E0CE018F539F4F0E94A66C85E053
:105200009BE00E94B26366E572E085E09BE00E944D
:105210003C646093200C7093210C8093220C90933B
:10522000230C20E030E040E151E40E94C77220E00E
:1052300030E040E050E40E94107120E030E040EAAD
:1052400050E40E94787120E030E040E052E40E9497
:1052500010716093D20B7093D30B8093D40B909307
:10526000D50B9B01AC010E942A73882341F0109258
:10527000D20B1092D30B1092D40B1092D50B48E0A6
:1052800050E06DEB73E0CE0189549F4F0E943F02C6
:105290004091D20B5091D30B6091D40B7091D50BF0
:1052A00022E030E0CE0189549F4F0E943E6E68E5B7
:1052B00077E0CE0189549F4F0E94A66C6EE472E0A5
:1052C00085E09BE00E943C6460931C0C70931D0C75
:1052D00080931E0C90931F0C20E030E040E151E4DD
:1052E0000E94C77220E030E040E050E40E9410715C
:1052F00020E030E040EA50E40E94787120E030E0A5
:1053000040E052E40E9410716093CE0B7093CF0B7B
:105310008093D00B9093D10B9B01AC010E942A7318
:10532000882341F01092CE0B1092CF0B1092D00B2D
:105330001092D10B48E050E065EB73E0CE0183554D
:105340009F4F0E943F024091CE0B5091CF0B609136
:10535000D00B7091D10B22E030E0CE0183559F4FEE
:105360000E943E6E68E577E0CE0183559F4F0E9414
:10537000A66C66E472E085E09BE00E943C6460936A
:10538000180C7093190C80931A0C90931B0C20E04E
:1053900030E040E151E40E94C77220E030E040E09C
:1053A00050E40E94107120E030E040EA50E40E9496
:1053B000787120E030E040E052E40E941071609388
:1053C000CA0B7093CB0B8093CC0B9093CD0B9B01AE
:1053D000AC010E942A73882341F01092CA0B1092EC
:1053E000CB0B1092CC0B1092CD0B48E050E06DEA45
:1053F00073E0CE018D559F4F0E943F024091CA0B32
:105400005091CB0B6091CC0B7091CD0B22E030E032
:10541000CE018D559F4F0E943E6E68E577E0CE012C
:105420008D559F4F0E94A66C6EE372E085E09BE075
:105430000E943C646093140C7093150C8093160CBE
:105440009093170C20E030E040E151E40E94C772D5
:1054500020E030E040E050E40E94107120E030E0B5
:1054600040EA50E40E94787120E030E040E052E4ED
:105470000E9410716093C60B7093C70B8093C80B8A
:105480009093C90B9B01AC010E942A73882341F0C1
:105490001092C60B1092C70B1092C80B1092C90B3A
:1054A00048E050E065EA73E0CE0187569F4F0E94C6
:1054B0003F024091C60B5091C70B6091C80B709191
:1054C000C90B22E030E0CE0187569F4F0E943E6E0E
:1054D00068E577E0CE0187569F4F0E94A66C6091E9
:1054E00036027091370280913802909139025EDB6A
:1054F0000E94E07170932D0C60932C0C609132022D
:105500007091330280913402909135024FDB0E94FA
:10551000E07170932B0C60932A0C60912E027091B5
:105520002F02809130029091310240DB0E94E071A5
:105530007093290C6093280C60912A0270912B02C1
:1055400080912C0290912D0231DB0E94E0717093CA
:10555000270C6093260C40912C0C50912D0C20911F
:105560002A0C30912B0C240F351FE091280CF09160
:10557000290C2E0F3F1F260F371F3093250C209329
:10558000240CBA01882777FD8095982F0E9413720A
:105590006093E60B7093E70B8093E80B9093E90B15
:1055A00048E050E06DEF73E0CE0181579F4F0E94BD
:1055B0003F024091E60B5091E70B6091E80B709130
:1055C000E90B22E030E0CE0181579F4F0E943E6EF2
:1055D0006BE577E0CE0181579F4F0E94A66C6091EA
:1055E0002A0C70912B0C882777FD8095982F0E94AC
:1055F00013726093E20B7093E30B8093E40B909330
:10560000E50B48E050E065EF73E0CE018B579F4F0C
:105610000E943F024091E20B5091E30B6091E40B3A
:105620007091E50B22E030E0CE018B579F4F0E9436
:105630003E6E6BE577E0CE018B579F4F0E94A66CC4
:105640006091280C7091290C882777FD8095982F00
:105650000E9413726093DE0B7093DF0B8093E00B5C
:105660009093E10B48E050E06DEE73E0CE01855879
:105670009F4F0E943F024091DE0B5091DF0B6091E3
:10568000E00B7091E10B22E030E0CE0185589F4F96
:105690000E943E6E6BE577E0CE0185589F4F0E94D9
:1056A000A66C6091260C7091270C882777FD809559
:1056B000982F0E9413726093DA0B7093DB0B809328
:1056C000DC0B9093DD0B48E050E065EE73E0CE011B
:1056D0008F589F4F0E943F024091DA0B5091DB0B95
:1056E0006091DC0B7091DD0B22E030E0CE018F5831
:1056F0009F4F0E943E6E6BE577E0CE018F589F4F23
:105700000E94A66C6091240C7091250C882777FD6F
:105710008095982F0E9413726093D60B7093D70BCD
:105720008093D80B9093D90B48E050E06DED73E077
:10573000CE0189599F4F0E943F024091D60B509154
:10574000D70B6091D80B7091D90B22E030E0CE01DD
:1057500089599F4F0E943E6E6BE577E0CE018959D3
:105760009F4F0E94A66C80913C020E943E686FE0B1
:1057700070E080E090E00E9496670AE010E0C12CA3
:10578000D12C760180913C020E943E68BC018827A2
:1057900077FD8095982F0E9413729B01AC01C70181
:1057A000B6010E9410716B017C010150110951F783
:1057B00020E030E040E151E40E9478710E94E07105
:1057C0007093330C6093320C882777FD8095982F67
:1057D0000E9413726093EE0B7093EF0B8093F00BAB
:1057E0009093F10B9B01AC010E942A73882341F036
:1057F0001092EE0B1092EF0B1092F00B1092F10B37
:1058000048E050E06CE074E0CE01835A9F4F0E9464
:105810003F024091EE0B5091EF0B6091F00B7091B5
:10582000F10B22E030E0CE01835A9F4F0E943E6E82
:105830006DE577E0CE01835A9F4F0E94A66C809160
:105840003A020E943E686FE070E080E090E00E94C3
:1058500096670AE010E0C12CD12C760180913A02C3
:105860000E943E68BC01882777FD8095982F0E9492
:1058700013729B01AC01C701B6010E9410716B014C
:105880007C010150110951F720E030E040E151E482
:105890000E9478710E94E0716B017C0170932F0C63
:1058A00060932E0C2091EE0B3091EF0B4091F00B9A
:1058B0005091F10B63E373E383E590E40E94787108
:1058C0004B015C01B601882777FD8095982F0E94D7
:1058D00013729B01AC01C501B4010E94C77224EA96
:1058E00030E74DE75FE30E940F7120E030E040E7D2
:1058F00051E40E94C77222EE3AE744EF5FE30E9450
:10590000787120E030E0A9010E9410716093FE0BD5
:105910007093FF0B8093000C9093010C9B01AC01E2
:105920000E942A73882341F01092FE0B1092FF0B05
:105930001092000C1092010C48E050E061E374E01A
:10594000CE018D5A9F4F0E943F024091FE0B509115
:10595000FF0B6091000C7091010C22E030E0CE0151
:105960008D5A9F4F0E943E6E62E677E0CE018D5ABF
:105970009F4F0E94A66C82E090E090934D0B809325
:105980004C0B88EF9AE00E94985C6FE070E080E03A
:1059900090E00E94966788EF9AE00E94985C0E94CF
:1059A000E0717093390C6093380C882777FD8095EF
:1059B000982F0E9413726093FA0B7093FB0B8093E5
:1059C000FC0B9093FD0B9B01AC010E942A73882372
:1059D00041F01092FA0B1092FB0B1092FC0B1092FC
:1059E000FD0B47E050E06AE274E0CE01875B9F4F19
:1059F0000E943F024091FA0B5091FB0B6091FC0B0F
:105A00007091FD0B22E030E0CE01875B9F4F0E943A
:105A10003E6E20E030E040E251E46091FA0B70917C
:105A2000FB0B8091FC0B9091FD0B0E94747187FF22
:105A300003C06AE677E002C06DE677E0CE01875BDF
:105A40009F4F0E94A66C6EE97BE0CE0101960E94FA
:105A5000BF6669817A818B819C810E94E0712B01F4
:105A60003C017093130C6093120C6D817E818F81C9
:105A700098850E94E0714B015C017093110C60935A
:105A8000100C69857A858B859C850E94E0716B017D
:105A90007C0170930F0C60930E0CB201882777FD88
:105AA0008095982F0E9413726093C20B7093C30B62
:105AB0008093C40B9093C50BB401882777FD809524
:105AC000982F0E9413726093BE0B7093BF0B80934C
:105AD000C00B9093C10BB601882777FD8095982F56
